{
  "_format": "hh-sol-artifact-1",
  "contractName": "NFT",
  "sourceName": "contracts/NFT.sol",
  "abi": [
    {
      "inputs": [
        {
          "internalType": "string",
          "name": "name",
          "type": "string"
        },
        {
          "internalType": "string",
          "name": "symbol",
          "type": "string"
        }
      ],
      "stateMutability": "nonpayable",
      "type": "constructor"
    },
    {
      "anonymous": false,
      "inputs": [
        {
          "indexed": true,
          "internalType": "address",
          "name": "owner",
          "type": "address"
        },
        {
          "indexed": true,
          "internalType": "address",
          "name": "approved",
          "type": "address"
        },
        {
          "indexed": true,
          "internalType": "uint256",
          "name": "tokenId",
          "type": "uint256"
        }
      ],
      "name": "Approval",
      "type": "event"
    },
    {
      "anonymous": false,
      "inputs": [
        {
          "indexed": true,
          "internalType": "address",
          "name": "owner",
          "type": "address"
        },
        {
          "indexed": true,
          "internalType": "address",
          "name": "operator",
          "type": "address"
        },
        {
          "indexed": false,
          "internalType": "bool",
          "name": "approved",
          "type": "bool"
        }
      ],
      "name": "ApprovalForAll",
      "type": "event"
    },
    {
      "anonymous": false,
      "inputs": [
        {
          "indexed": true,
          "internalType": "address",
          "name": "previousOwner",
          "type": "address"
        },
        {
          "indexed": true,
          "internalType": "address",
          "name": "newOwner",
          "type": "address"
        }
      ],
      "name": "OwnershipTransferred",
      "type": "event"
    },
    {
      "anonymous": false,
      "inputs": [
        {
          "indexed": true,
          "internalType": "address",
          "name": "from",
          "type": "address"
        },
        {
          "indexed": true,
          "internalType": "address",
          "name": "to",
          "type": "address"
        },
        {
          "indexed": true,
          "internalType": "uint256",
          "name": "tokenId",
          "type": "uint256"
        }
      ],
      "name": "Transfer",
      "type": "event"
    },
    {
      "inputs": [
        {
          "internalType": "address",
          "name": "to",
          "type": "address"
        },
        {
          "internalType": "uint256",
          "name": "tokenId",
          "type": "uint256"
        }
      ],
      "name": "approve",
      "outputs": [],
      "stateMutability": "nonpayable",
      "type": "function"
    },
    {
      "inputs": [
        {
          "internalType": "address",
          "name": "owner",
          "type": "address"
        }
      ],
      "name": "balanceOf",
      "outputs": [
        {
          "internalType": "uint256",
          "name": "",
          "type": "uint256"
        }
      ],
      "stateMutability": "view",
      "type": "function"
    },
    {
      "inputs": [
        {
          "internalType": "uint256",
          "name": "tokenId",
          "type": "uint256"
        }
      ],
      "name": "getApproved",
      "outputs": [
        {
          "internalType": "address",
          "name": "",
          "type": "address"
        }
      ],
      "stateMutability": "view",
      "type": "function"
    },
    {
      "inputs": [
        {
          "internalType": "address",
          "name": "owner",
          "type": "address"
        },
        {
          "internalType": "address",
          "name": "operator",
          "type": "address"
        }
      ],
      "name": "isApprovedForAll",
      "outputs": [
        {
          "internalType": "bool",
          "name": "",
          "type": "bool"
        }
      ],
      "stateMutability": "view",
      "type": "function"
    },
    {
      "inputs": [
        {
          "internalType": "address",
          "name": "to",
          "type": "address"
        },
        {
          "internalType": "uint256",
          "name": "amount",
          "type": "uint256"
        }
      ],
      "name": "mint",
      "outputs": [],
      "stateMutability": "nonpayable",
      "type": "function"
    },
    {
      "inputs": [
        {
          "internalType": "address",
          "name": "to",
          "type": "address"
        }
      ],
      "name": "mint",
      "outputs": [],
      "stateMutability": "nonpayable",
      "type": "function"
    },
    {
      "inputs": [],
      "name": "name",
      "outputs": [
        {
          "internalType": "string",
          "name": "",
          "type": "string"
        }
      ],
      "stateMutability": "view",
      "type": "function"
    },
    {
      "inputs": [],
      "name": "owner",
      "outputs": [
        {
          "internalType": "address",
          "name": "",
          "type": "address"
        }
      ],
      "stateMutability": "view",
      "type": "function"
    },
    {
      "inputs": [
        {
          "internalType": "uint256",
          "name": "tokenId",
          "type": "uint256"
        }
      ],
      "name": "ownerOf",
      "outputs": [
        {
          "internalType": "address",
          "name": "",
          "type": "address"
        }
      ],
      "stateMutability": "view",
      "type": "function"
    },
    {
      "inputs": [],
      "name": "renounceOwnership",
      "outputs": [],
      "stateMutability": "nonpayable",
      "type": "function"
    },
    {
      "inputs": [
        {
          "internalType": "address",
          "name": "from",
          "type": "address"
        },
        {
          "internalType": "address",
          "name": "to",
          "type": "address"
        },
        {
          "internalType": "uint256",
          "name": "tokenId",
          "type": "uint256"
        }
      ],
      "name": "safeTransferFrom",
      "outputs": [],
      "stateMutability": "nonpayable",
      "type": "function"
    },
    {
      "inputs": [
        {
          "internalType": "address",
          "name": "from",
          "type": "address"
        },
        {
          "internalType": "address",
          "name": "to",
          "type": "address"
        },
        {
          "internalType": "uint256",
          "name": "tokenId",
          "type": "uint256"
        },
        {
          "internalType": "bytes",
          "name": "data",
          "type": "bytes"
        }
      ],
      "name": "safeTransferFrom",
      "outputs": [],
      "stateMutability": "nonpayable",
      "type": "function"
    },
    {
      "inputs": [
        {
          "internalType": "address",
          "name": "operator",
          "type": "address"
        },
        {
          "internalType": "bool",
          "name": "approved",
          "type": "bool"
        }
      ],
      "name": "setApprovalForAll",
      "outputs": [],
      "stateMutability": "nonpayable",
      "type": "function"
    },
    {
      "inputs": [
        {
          "internalType": "string",
          "name": "baseURI_",
          "type": "string"
        }
      ],
      "name": "setBaseURI",
      "outputs": [],
      "stateMutability": "nonpayable",
      "type": "function"
    },
    {
      "inputs": [
        {
          "internalType": "bytes4",
          "name": "interfaceId",
          "type": "bytes4"
        }
      ],
      "name": "supportsInterface",
      "outputs": [
        {
          "internalType": "bool",
          "name": "",
          "type": "bool"
        }
      ],
      "stateMutability": "view",
      "type": "function"
    },
    {
      "inputs": [],
      "name": "symbol",
      "outputs": [
        {
          "internalType": "string",
          "name": "",
          "type": "string"
        }
      ],
      "stateMutability": "view",
      "type": "function"
    },
    {
      "inputs": [
        {
          "internalType": "uint256",
          "name": "index",
          "type": "uint256"
        }
      ],
      "name": "tokenByIndex",
      "outputs": [
        {
          "internalType": "uint256",
          "name": "",
          "type": "uint256"
        }
      ],
      "stateMutability": "view",
      "type": "function"
    },
    {
      "inputs": [
        {
          "internalType": "address",
          "name": "owner",
          "type": "address"
        },
        {
          "internalType": "uint256",
          "name": "index",
          "type": "uint256"
        }
      ],
      "name": "tokenOfOwnerByIndex",
      "outputs": [
        {
          "internalType": "uint256",
          "name": "",
          "type": "uint256"
        }
      ],
      "stateMutability": "view",
      "type": "function"
    },
    {
      "inputs": [
        {
          "internalType": "uint256",
          "name": "tokenId",
          "type": "uint256"
        }
      ],
      "name": "tokenURI",
      "outputs": [
        {
          "internalType": "string",
          "name": "",
          "type": "string"
        }
      ],
      "stateMutability": "view",
      "type": "function"
    },
    {
      "inputs": [],
      "name": "totalSupply",
      "outputs": [
        {
          "internalType": "uint256",
          "name": "",
          "type": "uint256"
        }
      ],
      "stateMutability": "view",
      "type": "function"
    },
    {
      "inputs": [
        {
          "internalType": "address",
          "name": "from",
          "type": "address"
        },
        {
          "internalType": "address",
          "name": "to",
          "type": "address"
        },
        {
          "internalType": "uint256",
          "name": "tokenId",
          "type": "uint256"
        }
      ],
      "name": "transferFrom",
      "outputs": [],
      "stateMutability": "nonpayable",
      "type": "function"
    },
    {
      "inputs": [
        {
          "internalType": "address",
          "name": "newOwner",
          "type": "address"
        }
      ],
      "name": "transferOwnership",
      "outputs": [],
      "stateMutability": "nonpayable",
      "type": "function"
    }
  ],
  "bytecode": "0x60806040523480156200001157600080fd5b5060405162001ffd38038062001ffd833981016040819052620000349162000237565b8151829082906200004d906000906020850190620000de565b50805162000063906001906020840190620000de565b505050620000806200007a6200008860201b60201c565b6200008c565b5050620002f1565b3390565b600a80546001600160a01b038381166001600160a01b0319831681179093556040519116919082907f8be0079c531659141344cd1fd0a4f28419497f9722a3daafe3b4186f6b6457e090600090a35050565b828054620000ec906200029e565b90600052602060002090601f0160209004810192826200011057600085556200015b565b82601f106200012b57805160ff19168380011785556200015b565b828001600101855582156200015b579182015b828111156200015b5782518255916020019190600101906200013e565b50620001699291506200016d565b5090565b5b808211156200016957600081556001016200016e565b600082601f83011262000195578081fd5b81516001600160401b0380821115620001b257620001b2620002db565b604051601f8301601f19908116603f01168101908282118183101715620001dd57620001dd620002db565b81604052838152602092508683858801011115620001f9578485fd5b8491505b838210156200021c5785820183015181830184015290820190620001fd565b838211156200022d57848385830101525b9695505050505050565b600080604083850312156200024a578182fd5b82516001600160401b038082111562000261578384fd5b6200026f8683870162000184565b9350602085015191508082111562000285578283fd5b50620002948582860162000184565b9150509250929050565b600181811c90821680620002b357607f821691505b60208210811415620002d557634e487b7160e01b600052602260045260246000fd5b50919050565b634e487b7160e01b600052604160045260246000fd5b611cfc80620003016000396000f3fe608060405234801561001057600080fd5b50600436106101825760003560e01c80636352211e116100d857806395d89b411161008c578063c87b56dd11610066578063c87b56dd14610308578063e985e9c51461031b578063f2fde38b1461035757610182565b806395d89b41146102da578063a22cb465146102e2578063b88d4fde146102f557610182565b806370a08231116100bd57806370a08231146102ae578063715018a6146102c15780638da5cb5b146102c957610182565b80636352211e146102885780636a6278421461029b57610182565b806323b872dd1161013a57806342842e0e1161011457806342842e0e1461024f5780634f6ccce71461026257806355f804b31461027557610182565b806323b872dd146102165780632f745c591461022957806340c10f191461023c57610182565b8063081812fc1161016b578063081812fc146101c4578063095ea7b3146101ef57806318160ddd1461020457610182565b806301ffc9a71461018757806306fdde03146101af575b600080fd5b61019a610195366004611a55565b61036a565b60405190151581526020015b60405180910390f35b6101b76103b0565b6040516101a69190611b82565b6101d76101d2366004611ad3565b610442565b6040516001600160a01b0390911681526020016101a6565b6102026101fd366004611a2c565b610469565b005b6008545b6040519081526020016101a6565b61020261022436600461193e565b6105a0565b610208610237366004611a2c565b610627565b61020261024a366004611a2c565b6106cf565b61020261025d36600461193e565b610717565b610208610270366004611ad3565b610732565b610202610283366004611a8d565b6107e4565b6101d7610296366004611ad3565b610803565b6102026102a93660046118f2565b610868565b6102086102bc3660046118f2565b61087d565b610202610917565b600a546001600160a01b03166101d7565b6101b761092b565b6102026102f03660046119f2565b61093a565b610202610303366004611979565b610945565b6101b7610316366004611ad3565b6109d3565b61019a61032936600461190c565b6001600160a01b03918216600090815260056020908152604080832093909416825291909152205460ff1690565b6102026103653660046118f2565b610a3a565b60006001600160e01b031982167f780e9d630000000000000000000000000000000000000000000000000000000014806103a857506103a882610ac7565b90505b919050565b6060600080546103bf90611c04565b80601f01602080910402602001604051908101604052809291908181526020018280546103eb90611c04565b80156104385780601f1061040d57610100808354040283529160200191610438565b820191906000526020600020905b81548152906001019060200180831161041b57829003601f168201915b5050505050905090565b600061044d82610b62565b506000908152600460205260409020546001600160a01b031690565b600061047482610803565b9050806001600160a01b0316836001600160a01b031614156105035760405162461bcd60e51b815260206004820152602160248201527f4552433732313a20617070726f76616c20746f2063757272656e74206f776e6560448201527f720000000000000000000000000000000000000000000000000000000000000060648201526084015b60405180910390fd5b336001600160a01b038216148061051f575061051f8133610329565b6105915760405162461bcd60e51b815260206004820152603e60248201527f4552433732313a20617070726f76652063616c6c6572206973206e6f7420746f60448201527f6b656e206f776e6572206e6f7220617070726f76656420666f7220616c6c000060648201526084016104fa565b61059b8383610bc6565b505050565b6105aa3382610c41565b61061c5760405162461bcd60e51b815260206004820152602e60248201527f4552433732313a2063616c6c6572206973206e6f7420746f6b656e206f776e6560448201527f72206e6f7220617070726f76656400000000000000000000000000000000000060648201526084016104fa565b61059b838383610cc0565b60006106328361087d565b82106106a65760405162461bcd60e51b815260206004820152602b60248201527f455243373231456e756d657261626c653a206f776e657220696e646578206f7560448201527f74206f6620626f756e647300000000000000000000000000000000000000000060648201526084016104fa565b506001600160a01b03919091166000908152600660209081526040808320938352929052205490565b60006106da60085490565b905060006106e88383611b95565b9050815b81811015610710576106fe8582610ea5565b8061070881611c3f565b9150506106ec565b5050505050565b61059b83838360405180602001604052806000815250610945565b600061073d60085490565b82106107b15760405162461bcd60e51b815260206004820152602c60248201527f455243373231456e756d657261626c653a20676c6f62616c20696e646578206f60448201527f7574206f6620626f756e6473000000000000000000000000000000000000000060648201526084016104fa565b600882815481106107d257634e487b7160e01b600052603260045260246000fd5b90600052602060002001549050919050565b6107ec610ebf565b80516107ff90600b9060208401906117cc565b5050565b6000818152600260205260408120546001600160a01b0316806103a85760405162461bcd60e51b815260206004820152601860248201527f4552433732313a20696e76616c696420746f6b656e204944000000000000000060448201526064016104fa565b61087a8161087560085490565b610ea5565b50565b60006001600160a01b0382166108fb5760405162461bcd60e51b815260206004820152602960248201527f4552433732313a2061646472657373207a65726f206973206e6f74206120766160448201527f6c6964206f776e6572000000000000000000000000000000000000000000000060648201526084016104fa565b506001600160a01b031660009081526003602052604090205490565b61091f610ebf565b6109296000610f19565b565b6060600180546103bf90611c04565b6107ff338383610f78565b61094f3383610c41565b6109c15760405162461bcd60e51b815260206004820152602e60248201527f4552433732313a2063616c6c6572206973206e6f7420746f6b656e206f776e6560448201527f72206e6f7220617070726f76656400000000000000000000000000000000000060648201526084016104fa565b6109cd84848484611047565b50505050565b60606109de82610b62565b60006109e86110c5565b90506000815111610a085760405180602001604052806000815250610a33565b80610a12846110d4565b604051602001610a23929190611b17565b6040516020818303038152906040525b9392505050565b610a42610ebf565b6001600160a01b038116610abe5760405162461bcd60e51b815260206004820152602660248201527f4f776e61626c653a206e6577206f776e657220697320746865207a65726f206160448201527f646472657373000000000000000000000000000000000000000000000000000060648201526084016104fa565b61087a81610f19565b60006001600160e01b031982167f80ac58cd000000000000000000000000000000000000000000000000000000001480610b2a57506001600160e01b031982167f5b5e139f00000000000000000000000000000000000000000000000000000000145b806103a857507f01ffc9a7000000000000000000000000000000000000000000000000000000006001600160e01b03198316146103a8565b6000818152600260205260409020546001600160a01b031661087a5760405162461bcd60e51b815260206004820152601860248201527f4552433732313a20696e76616c696420746f6b656e204944000000000000000060448201526064016104fa565b6000818152600460205260409020805473ffffffffffffffffffffffffffffffffffffffff19166001600160a01b0384169081179091558190610c0882610803565b6001600160a01b03167f8c5be1e5ebec7d5bd14f71427d1e84f3dd0314c0f7b2291e5b200ac8c7c3b92560405160405180910390a45050565b600080610c4d83610803565b9050806001600160a01b0316846001600160a01b03161480610c9457506001600160a01b0380821660009081526005602090815260408083209388168352929052205460ff165b80610cb85750836001600160a01b0316610cad84610442565b6001600160a01b0316145b949350505050565b826001600160a01b0316610cd382610803565b6001600160a01b031614610d4f5760405162461bcd60e51b815260206004820152602560248201527f4552433732313a207472616e736665722066726f6d20696e636f72726563742060448201527f6f776e657200000000000000000000000000000000000000000000000000000060648201526084016104fa565b6001600160a01b038216610dca5760405162461bcd60e51b8152602060048201526024808201527f4552433732313a207472616e7366657220746f20746865207a65726f2061646460448201527f726573730000000000000000000000000000000000000000000000000000000060648201526084016104fa565b610dd5838383611223565b610de0600082610bc6565b6001600160a01b0383166000908152600360205260408120805460019290610e09908490611bc1565b90915550506001600160a01b0382166000908152600360205260408120805460019290610e37908490611b95565b9091555050600081815260026020526040808220805473ffffffffffffffffffffffffffffffffffffffff19166001600160a01b0386811691821790925591518493918716917fddf252ad1be2c89b69c2b068fc378daa952ba7f163c4a11628f55a4df523b3ef91a461059b565b6107ff8282604051806020016040528060008152506112e0565b600a546001600160a01b031633146109295760405162461bcd60e51b815260206004820181905260248201527f4f776e61626c653a2063616c6c6572206973206e6f7420746865206f776e657260448201526064016104fa565b600a80546001600160a01b0383811673ffffffffffffffffffffffffffffffffffffffff19831681179093556040519116919082907f8be0079c531659141344cd1fd0a4f28419497f9722a3daafe3b4186f6b6457e090600090a35050565b816001600160a01b0316836001600160a01b03161415610fda5760405162461bcd60e51b815260206004820152601960248201527f4552433732313a20617070726f766520746f2063616c6c65720000000000000060448201526064016104fa565b6001600160a01b03838116600081815260056020908152604080832094871680845294825291829020805460ff191686151590811790915591519182527f17307eab39ab6107e8899845ad3d59bd9653f200f220920489ca2b5937696c31910160405180910390a3505050565b611052848484610cc0565b61105e8484848461135e565b6109cd5760405162461bcd60e51b815260206004820152603260248201527f4552433732313a207472616e7366657220746f206e6f6e20455243373231526560448201527131b2b4bb32b91034b6b83632b6b2b73a32b960711b60648201526084016104fa565b6060600b80546103bf90611c04565b606081611115575060408051808201909152600181527f300000000000000000000000000000000000000000000000000000000000000060208201526103ab565b8160005b811561113f578061112981611c3f565b91506111389050600a83611bad565b9150611119565b60008167ffffffffffffffff81111561116857634e487b7160e01b600052604160045260246000fd5b6040519080825280601f01601f191660200182016040528015611192576020820181803683370190505b5090505b8415610cb8576111a7600183611bc1565b91506111b4600a86611c5a565b6111bf906030611b95565b60f81b8183815181106111e257634e487b7160e01b600052603260045260246000fd5b60200101907effffffffffffffffffffffffffffffffffffffffffffffffffffffffffffff1916908160001a90535061121c600a86611bad565b9450611196565b6001600160a01b03831661127e5761127981600880546000838152600960205260408120829055600182018355919091527ff3f7a9fe364faab93b216da50a3214154f22a0a2b415b23a84c8169e8b636ee30155565b6112a1565b816001600160a01b0316836001600160a01b0316146112a1576112a183826114b6565b6001600160a01b0382166112bd576112b881611553565b61059b565b826001600160a01b0316826001600160a01b03161461059b5761059b828261162c565b6112ea8383611670565b6112f7600084848461135e565b61059b5760405162461bcd60e51b815260206004820152603260248201527f4552433732313a207472616e7366657220746f206e6f6e20455243373231526560448201527131b2b4bb32b91034b6b83632b6b2b73a32b960711b60648201526084016104fa565b60006001600160a01b0384163b156114ab57604051630a85bd0160e11b81526001600160a01b0385169063150b7a02906113a2903390899088908890600401611b46565b602060405180830381600087803b1580156113bc57600080fd5b505af19250505080156113ec575060408051601f3d908101601f191682019092526113e991810190611a71565b60015b611491573d80801561141a576040519150601f19603f3d011682016040523d82523d6000602084013e61141f565b606091505b5080516114895760405162461bcd60e51b815260206004820152603260248201527f4552433732313a207472616e7366657220746f206e6f6e20455243373231526560448201527131b2b4bb32b91034b6b83632b6b2b73a32b960711b60648201526084016104fa565b805181602001fd5b6001600160e01b031916630a85bd0160e11b149050610cb8565b506001949350505050565b600060016114c38461087d565b6114cd9190611bc1565b600083815260076020526040902054909150808214611520576001600160a01b03841660009081526006602090815260408083208584528252808320548484528184208190558352600790915290208190555b5060009182526007602090815260408084208490556001600160a01b039094168352600681528383209183525290812055565b60085460009061156590600190611bc1565b6000838152600960205260408120546008805493945090928490811061159b57634e487b7160e01b600052603260045260246000fd5b9060005260206000200154905080600883815481106115ca57634e487b7160e01b600052603260045260246000fd5b600091825260208083209091019290925582815260099091526040808220849055858252812055600880548061161057634e487b7160e01b600052603160045260246000fd5b6001900381819060005260206000200160009055905550505050565b60006116378361087d565b6001600160a01b039093166000908152600660209081526040808320868452825280832085905593825260079052919091209190915550565b6001600160a01b0382166116c65760405162461bcd60e51b815260206004820181905260248201527f4552433732313a206d696e7420746f20746865207a65726f206164647265737360448201526064016104fa565b6000818152600260205260409020546001600160a01b03161561172b5760405162461bcd60e51b815260206004820152601c60248201527f4552433732313a20746f6b656e20616c7265616479206d696e7465640000000060448201526064016104fa565b61173760008383611223565b6001600160a01b0382166000908152600360205260408120805460019290611760908490611b95565b9091555050600081815260026020526040808220805473ffffffffffffffffffffffffffffffffffffffff19166001600160a01b03861690811790915590518392907fddf252ad1be2c89b69c2b068fc378daa952ba7f163c4a11628f55a4df523b3ef908290a46107ff565b8280546117d890611c04565b90600052602060002090601f0160209004810192826117fa5760008555611840565b82601f1061181357805160ff1916838001178555611840565b82800160010185558215611840579182015b82811115611840578251825591602001919060010190611825565b5061184c929150611850565b5090565b5b8082111561184c5760008155600101611851565b600067ffffffffffffffff8084111561188057611880611c9a565b604051601f8501601f19908116603f011681019082821181831017156118a8576118a8611c9a565b816040528093508581528686860111156118c157600080fd5b858560208301376000602087830101525050509392505050565b80356001600160a01b03811681146103ab57600080fd5b600060208284031215611903578081fd5b610a33826118db565b6000806040838503121561191e578081fd5b611927836118db565b9150611935602084016118db565b90509250929050565b600080600060608486031215611952578081fd5b61195b846118db565b9250611969602085016118db565b9150604084013590509250925092565b6000806000806080858703121561198e578081fd5b611997856118db565b93506119a5602086016118db565b925060408501359150606085013567ffffffffffffffff8111156119c7578182fd5b8501601f810187136119d7578182fd5b6119e687823560208401611865565b91505092959194509250565b60008060408385031215611a04578182fd5b611a0d836118db565b915060208301358015158114611a21578182fd5b809150509250929050565b60008060408385031215611a3e578182fd5b611a47836118db565b946020939093013593505050565b600060208284031215611a66578081fd5b8135610a3381611cb0565b600060208284031215611a82578081fd5b8151610a3381611cb0565b600060208284031215611a9e578081fd5b813567ffffffffffffffff811115611ab4578182fd5b8201601f81018413611ac4578182fd5b610cb884823560208401611865565b600060208284031215611ae4578081fd5b5035919050565b60008151808452611b03816020860160208601611bd8565b601f01601f19169290920160200192915050565b60008351611b29818460208801611bd8565b835190830190611b3d818360208801611bd8565b01949350505050565b60006001600160a01b03808716835280861660208401525083604083015260806060830152611b786080830184611aeb565b9695505050505050565b600060208252610a336020830184611aeb565b60008219821115611ba857611ba8611c6e565b500190565b600082611bbc57611bbc611c84565b500490565b600082821015611bd357611bd3611c6e565b500390565b60005b83811015611bf3578181015183820152602001611bdb565b838111156109cd5750506000910152565b600181811c90821680611c1857607f821691505b60208210811415611c3957634e487b7160e01b600052602260045260246000fd5b50919050565b6000600019821415611c5357611c53611c6e565b5060010190565b600082611c6957611c69611c84565b500690565b634e487b7160e01b600052601160045260246000fd5b634e487b7160e01b600052601260045260246000fd5b634e487b7160e01b600052604160045260246000fd5b6001600160e01b03198116811461087a57600080fdfea2646970667358221220368ee414dede7a869d64019b18b603d0d76b384f75e2075cca87afb37ff8c5e964736f6c63430008030033",
  "linkReferences": {},
  "deployedLinkReferences": {}
}